:10000000926A006B016B026B036B046B056B076BF1
:10001000096B040E086FC70E066F640E006F070EA3
:10002000896E5DEC00F0896A81681FEC00F0045372
:1000300004E147EC00F007C080FF15EF00F0811CE1
:100040000315E8B033EC00F0E8B239EC00F0E8B4A6
:1000500040EC00F0E8B643EC00F0E8B845EC00F006
:1000600081CF03F01200045302E189CF04F0041F92
:100070001200E20E06633EEF00F0C60E066F12009D
:10008000040E086F120008071200082B1200003F30
:10009000120006C000F04EEC00F01200013F12000A
:1000A00053EC00F012000793092B084509635BEF3E
:1000B00000F0096B078307711200F60E006F016BE9
:1000C0006DEC00F06DEC00F06DEC00F06DEC00F00C
:1000D0006DEC00F06DEC00F0120073EC00F0003FEE
:0E00E0006DEF00F01200013F73EF00F0120010
:04FFFC0000EF00F022
:020000040030CA
:0300010006181EC0
:020005008181F7
:060008000FC00FE00F40E5
:00000001FF
