:10000000926A006B016B026B036B046B056B076BF1
:10001000096B040E086F0A6FC70E066F640E006F3F
:10002000070E896E62EC00F0896A06C000F021ECD0
:1000300000F0045304E149EC00F007C089FF17EF1A
:1000400000F0811C0315E8B035EC00F0E8B23BECA1
:1000500000F0E8B442EC00F0E8B645EC00F0E8B897
:1000600047EC00F081CF03F01200045302E1040ECC
:10007000896E041F1200E20E066340EF00F0C70E07
:10008000066F1200040E0A6F12000A0712000A2BF4
:100090001200003F120006C000F050EC00F0120009
:1000A000013F120055EC00F012000793092B0845A0
:1000B000E806096360EF00F00AC008F0096B0783E7
:1000C00007711200F60E006F016B72EC00F072EC1B
:1000D00000F072EC00F072EC00F072EC00F072ECE8
:1000E00000F0120078EC00F0003F72EF00F0120018
:0800F000013F78EF00F012005F
:04FFFC0000EF00F022
:020000040030CA
:0300010006181EC0
:020005008181F7
:060008000FC00FE00F40E5
:00000001FF
