:10000000926A006B016B026B036B046B056B640EF1
:10001000006F070E896E3CEC00F0896A816817EC6E
:1000200000F0045302E12EEC00F00FEF00F0811C11
:100030000315056F05B12CEC00F005B32EEC00F0B4
:1000400005B52EEC00F005B72EEC00F005B92EEC4E
:1000500000F081CF03F01200041F1200003F1200D5
:10006000C50E006F35EC00F01200013F12003AECB3
:1000700000F01200891E1200F60E006F016B4CECAE
:1000800000F04CEC00F04CEC00F04CEC00F04CECD0
:1000900000F04CEC00F0120052EC00F0003F4CEF8E
:0C00A00000F01200013F52EF00F01200CF
:04FFFC0000EF00F022
:020000040030CA
:0300010006181EC0
:020005008181F7
:060008000FC00FE00F40E5
:00000001FF
