:10000000926A006B016B026B036B046B056B076BF1
:10001000096B040E086FC70E066F640E006F070EA3
:10002000896E5FEC00F0896A816806C000F021ECFF
:1000300000F0045304E149EC00F007C089FF17EF1A
:1000400000F0811C0315E8B035EC00F0E8B23BECA1
:1000500000F0E8B442EC00F0E8B645EC00F0E8B897
:1000600047EC00F081CF03F01200045302E1040ECC
:10007000896E041F1200E20E066340EF00F0C70E07
:10008000066F1200040E086F120008071200082BFA
:100090001200003F120006C000F050EC00F0120009
:1000A000013F120055EC00F012000793092B0845A0
:1000B00009635DEF00F0096B078307711200F60E0C
:1000C000006F016B6FEC00F06FEC00F06FEC00F074
:1000D0006FEC00F06FEC00F06FEC00F0120075ECCC
:1000E00000F0003F6FEF00F01200013F75EF00F0ED
:0200F0001200FC
:04FFFC0000EF00F022
:020000040030CA
:0300010006181EC0
:020005008181F7
:060008000FC00FE00F40E5
:00000001FF
